:100000007590FF758902758C001200B39001167807
:100010000CE893F5A0D28C308DFDC28DC28CD8F146
:1000200080EDC297C296C295C294E590540FB40F6A
:10003000F111D6E590540FB40F0280E6C297D29624
:10004000D295D294E590B47F2AD297C296D295D217
:1000500094E590B4BF22D297D296C295D294E590FF
:10006000B4DF1AD297D296D295C294E590B4EF122B
:100070000200229000DF800F9000E3800A9000E7EA
:1000800080059000EB80007A04135005A3DAF88015
:1000900091E493B443061200B3020009221200B3A4
:1000A000900123E49360061200CBA380F612002295
:1000B000020009743811C0740E11C0740111C022FD
:1000C000F580C2B0D2B1C2B111D622F580D2B0D281
:1000D000B1C2B111D6227B647AC8DAFEDBFA2237CC
:1000E00038394B3435362A3132332D43303D2B00ED
:1000F00080C0EEFFEEC080401100114000FFFFFF06
:10010000FFFFFF00000000000000FFE8D1BAA38C51
:10011000755E4730180000002A547EA8D3FFD3A88C
:090120007E542A4552524F520050
:00000001FF
